{
  "contractName": "SignerWithDeadSwitch",
  "abi": [
    {
      "constant": true,
      "inputs": [
        {
          "name": "account",
          "type": "address"
        }
      ],
      "name": "isSigner",
      "outputs": [
        {
          "name": "",
          "type": "bool"
        }
      ],
      "payable": false,
      "stateMutability": "view",
      "type": "function"
    },
    {
      "constant": false,
      "inputs": [],
      "name": "renounceSigner",
      "outputs": [],
      "payable": false,
      "stateMutability": "nonpayable",
      "type": "function"
    },
    {
      "constant": false,
      "inputs": [
        {
          "name": "account",
          "type": "address"
        }
      ],
      "name": "addSigner",
      "outputs": [],
      "payable": false,
      "stateMutability": "nonpayable",
      "type": "function"
    },
    {
      "inputs": [
        {
          "name": "_recoverer",
          "type": "address"
        }
      ],
      "payable": false,
      "stateMutability": "nonpayable",
      "type": "constructor"
    },
    {
      "anonymous": false,
      "inputs": [
        {
          "indexed": true,
          "name": "account",
          "type": "address"
        }
      ],
      "name": "SignerAdded",
      "type": "event"
    },
    {
      "anonymous": false,
      "inputs": [
        {
          "indexed": true,
          "name": "account",
          "type": "address"
        }
      ],
      "name": "SignerRemoved",
      "type": "event"
    },
    {
      "constant": false,
      "inputs": [
        {
          "name": "_finalizeAfter",
          "type": "uint256"
        },
        {
          "name": "_recovererSig",
          "type": "bytes"
        }
      ],
      "name": "initiateDeadSwitch",
      "outputs": [],
      "payable": false,
      "stateMutability": "nonpayable",
      "type": "function"
    },
    {
      "constant": false,
      "inputs": [
        {
          "name": "_newSigner",
          "type": "address"
        },
        {
          "name": "_recovererSig",
          "type": "bytes"
        }
      ],
      "name": "finalizeDeadSwitch",
      "outputs": [],
      "payable": false,
      "stateMutability": "nonpayable",
      "type": "function"
    },
    {
      "constant": false,
      "inputs": [
        {
          "name": "_newRecoverer",
          "type": "address"
        }
      ],
      "name": "cancelDeadSwitch",
      "outputs": [],
      "payable": false,
      "stateMutability": "nonpayable",
      "type": "function"
    },
    {
      "constant": false,
      "inputs": [
        {
          "name": "_recoverer",
          "type": "address"
        }
      ],
      "name": "setRecoverer",
      "outputs": [],
      "payable": false,
      "stateMutability": "nonpayable",
      "type": "function"
    }
  ],
  "bytecode": "0x608060405234801561001057600080fd5b50604051602080610a708339810180604052810190808051906020019092919050505080600160006101000a81548173ffffffffffffffffffffffffffffffffffffffff021916908373ffffffffffffffffffffffffffffffffffffffff160217905550506109ec806100846000396000f300608060405260043610610083576000357c0100000000000000000000000000000000000000000000000000000000900463ffffffff168063242702f01461008857806341a2fd70146100cb5780637df73e2714610154578063b115d0ac146101af578063e5c8b03d14610222578063eb12d61e14610239578063ed63058d1461027c575b600080fd5b34801561009457600080fd5b506100c9600480360381019080803573ffffffffffffffffffffffffffffffffffffffff1690602001909291905050506102bf565b005b3480156100d757600080fd5b50610152600480360381019080803573ffffffffffffffffffffffffffffffffffffffff169060200190929190803590602001908201803590602001908080601f016020809104026020016040519081016040528093929190818152602001838380828437820191505050505050919291929050505061037c565b005b34801561016057600080fd5b50610195600480360381019080803573ffffffffffffffffffffffffffffffffffffffff1690602001909291905050506104ea565b604051808215151515815260200191505060405180910390f35b3480156101bb57600080fd5b5061022060048036038101908080359060200190929190803590602001908201803590602001908080601f0160208091040260200160405190810160405280939291908181526020018383808284378201915050505050509192919290505050610507565b005b34801561022e57600080fd5b50610237610618565b005b34801561024557600080fd5b5061027a600480360381019080803573ffffffffffffffffffffffffffffffffffffffff16906020019092919050505061062e565b005b34801561028857600080fd5b506102bd600480360381019080803573ffffffffffffffffffffffffffffffffffffffff16906020019092919050505061064e565b005b6102c8336104ea565b15156102d357600080fd5b600160009054906101000a900473ffffffffffffffffffffffffffffffffffffffff1673ffffffffffffffffffffffffffffffffffffffff168173ffffffffffffffffffffffffffffffffffffffff161415151561033057600080fd5b80600160006101000a81548173ffffffffffffffffffffffffffffffffffffffff021916908373ffffffffffffffffffffffffffffffffffffffff160217905550600060028190555050565b600060025411151561038d57600080fd5b6002544211151561039d57600080fd5b61047a8183600254604051602001808373ffffffffffffffffffffffffffffffffffffffff1673ffffffffffffffffffffffffffffffffffffffff166c01000000000000000000000000028152601401828152602001925050506040516020818303038152906040526040518082805190602001908083835b60208310151561043b5780518252602082019150602081019050602083039250610416565b6001836020036101000a0380198251168184511680821785525050505050509050019150506040518091039020600019166106a690919063ffffffff16565b73ffffffffffffffffffffffffffffffffffffffff16600160009054906101000a900473ffffffffffffffffffffffffffffffffffffffff1673ffffffffffffffffffffffffffffffffffffffff161415156104d557600080fd5b6104de8261079e565b60006002819055505050565b60006105008260006107f890919063ffffffff16565b9050919050565b62ed4e0042018211151561051a57600080fd5b6105b28183604051602001808281526020019150506040516020818303038152906040526040518082805190602001908083835b602083101515610573578051825260208201915060208101905060208303925061054e565b6001836020036101000a0380198251168184511680821785525050505050509050019150506040518091039020600019166106a690919063ffffffff16565b73ffffffffffffffffffffffffffffffffffffffff16600160009054906101000a900473ffffffffffffffffffffffffffffffffffffffff1673ffffffffffffffffffffffffffffffffffffffff1614151561060d57600080fd5b816002819055505050565b61062c33600061088c90919063ffffffff16565b565b610637336104ea565b151561064257600080fd5b61064b8161079e565b50565b610657336104ea565b151561066257600080fd5b80600160006101000a81548173ffffffffffffffffffffffffffffffffffffffff021916908373ffffffffffffffffffffffffffffffffffffffff16021790555050565b600080600080604185511415156106c05760009350610795565b6020850151925060408501519150606085015160001a9050601b8160ff1610156106eb57601b810190505b601b8160ff16141580156107035750601c8160ff1614155b156107115760009350610795565b600186828585604051600081526020016040526040518085600019166000191681526020018460ff1660ff1681526020018360001916600019168152602001826000191660001916815260200194505050505060206040516020810390808403906000865af1158015610788573d6000803e3d6000fd5b5050506020604051035193505b50505092915050565b6107b281600061092690919063ffffffff16565b8073ffffffffffffffffffffffffffffffffffffffff167f47d1c22a25bb3a5d4e481b9b1e6944c2eade3181a0a20b495ed61d35b5323f2460405160405180910390a250565b60008073ffffffffffffffffffffffffffffffffffffffff168273ffffffffffffffffffffffffffffffffffffffff161415151561083557600080fd5b8260000160008373ffffffffffffffffffffffffffffffffffffffff1673ffffffffffffffffffffffffffffffffffffffff16815260200190815260200160002060009054906101000a900460ff16905092915050565b600073ffffffffffffffffffffffffffffffffffffffff168173ffffffffffffffffffffffffffffffffffffffff16141515156108c857600080fd5b60008260000160008373ffffffffffffffffffffffffffffffffffffffff1673ffffffffffffffffffffffffffffffffffffffff16815260200190815260200160002060006101000a81548160ff0219169083151502179055505050565b600073ffffffffffffffffffffffffffffffffffffffff168173ffffffffffffffffffffffffffffffffffffffff161415151561096257600080fd5b60018260000160008373ffffffffffffffffffffffffffffffffffffffff1673ffffffffffffffffffffffffffffffffffffffff16815260200190815260200160002060006101000a81548160ff02191690831515021790555050505600a165627a7a723058209bd0d6c43bc9207a64715824a53e7913ed43d1ac244a150ee4a62e8208fb96060029",
  "source": "pragma solidity ^0.4.24;\n\nimport \"./openzeppelin/SignerRole.sol\";\nimport \"./openzeppelin/ECDSA.sol\";\n\ncontract SignerWithDeadSwitch is SignerRole {\n    using ECDSA for bytes32;\n\n    address private recoverer;\n    uint    private finalizeAfter;\n\n    constructor(address _recoverer) public {\n        recoverer = _recoverer;\n    }\n\n    function initiateDeadSwitch(uint _finalizeAfter, bytes _recovererSig) public {\n        require(_finalizeAfter > now + 6 * 30 days);\n        require(recoverer == keccak256(abi.encodePacked(_finalizeAfter)).recover(_recovererSig));\n        finalizeAfter = _finalizeAfter;\n    }\n\n    function finalizeDeadSwitch(address _newSigner, bytes _recovererSig) public {\n        require(finalizeAfter > 0);\n        require(now > finalizeAfter);\n\n        require(recoverer == keccak256(abi.encodePacked(_newSigner, finalizeAfter)).recover(_recovererSig));\n        _addSigner(_newSigner);\n        finalizeAfter = 0;\n    }\n\n    function cancelDeadSwitch(address _newRecoverer) public onlySigner {\n        require(_newRecoverer != recoverer); // to avoid malicious initiateDeadSwitch() calls via sig replay\n        recoverer = _newRecoverer;\n        finalizeAfter = 0;\n    }\n\n    function setRecoverer(address _recoverer) public onlySigner {\n        recoverer = _recoverer;\n    }\n\n}\n",
  "sourcePath": "/Users/alex/src/DAILY-contracts/contracts/SignerWithDeadSwitch.sol",
  "compiler": {
    "name": "solc",
    "version": "0.4.24+commit.e67f0147.Emscripten.clang"
  },
  "schemaVersion": "2.0.1",
  "updatedAt": "2018-09-08T20:48:17.791Z"
}