{
  "contractName": "SignerRole",
  "abi": [
    {
      "inputs": [],
      "payable": false,
      "stateMutability": "nonpayable",
      "type": "constructor"
    },
    {
      "anonymous": false,
      "inputs": [
        {
          "indexed": true,
          "name": "account",
          "type": "address"
        }
      ],
      "name": "SignerAdded",
      "type": "event"
    },
    {
      "anonymous": false,
      "inputs": [
        {
          "indexed": true,
          "name": "account",
          "type": "address"
        }
      ],
      "name": "SignerRemoved",
      "type": "event"
    },
    {
      "constant": true,
      "inputs": [
        {
          "name": "account",
          "type": "address"
        }
      ],
      "name": "isSigner",
      "outputs": [
        {
          "name": "",
          "type": "bool"
        }
      ],
      "payable": false,
      "stateMutability": "view",
      "type": "function"
    },
    {
      "constant": false,
      "inputs": [
        {
          "name": "account",
          "type": "address"
        }
      ],
      "name": "addSigner",
      "outputs": [],
      "payable": false,
      "stateMutability": "nonpayable",
      "type": "function"
    },
    {
      "constant": false,
      "inputs": [],
      "name": "renounceSigner",
      "outputs": [],
      "payable": false,
      "stateMutability": "nonpayable",
      "type": "function"
    }
  ],
  "bytecode": "0x608060405234801561001057600080fd5b506103b2806100206000396000f300608060405260043610610057576000357c0100000000000000000000000000000000000000000000000000000000900463ffffffff1680637df73e271461005c578063e5c8b03d146100b7578063eb12d61e146100ce575b600080fd5b34801561006857600080fd5b5061009d600480360381019080803573ffffffffffffffffffffffffffffffffffffffff169060200190929190505050610111565b604051808215151515815260200191505060405180910390f35b3480156100c357600080fd5b506100cc61012e565b005b3480156100da57600080fd5b5061010f600480360381019080803573ffffffffffffffffffffffffffffffffffffffff169060200190929190505050610144565b005b600061012782600061016490919063ffffffff16565b9050919050565b6101423360006101f890919063ffffffff16565b565b61014d33610111565b151561015857600080fd5b61016181610292565b50565b60008073ffffffffffffffffffffffffffffffffffffffff168273ffffffffffffffffffffffffffffffffffffffff16141515156101a157600080fd5b8260000160008373ffffffffffffffffffffffffffffffffffffffff1673ffffffffffffffffffffffffffffffffffffffff16815260200190815260200160002060009054906101000a900460ff16905092915050565b600073ffffffffffffffffffffffffffffffffffffffff168173ffffffffffffffffffffffffffffffffffffffff161415151561023457600080fd5b60008260000160008373ffffffffffffffffffffffffffffffffffffffff1673ffffffffffffffffffffffffffffffffffffffff16815260200190815260200160002060006101000a81548160ff0219169083151502179055505050565b6102a68160006102ec90919063ffffffff16565b8073ffffffffffffffffffffffffffffffffffffffff167f47d1c22a25bb3a5d4e481b9b1e6944c2eade3181a0a20b495ed61d35b5323f2460405160405180910390a250565b600073ffffffffffffffffffffffffffffffffffffffff168173ffffffffffffffffffffffffffffffffffffffff161415151561032857600080fd5b60018260000160008373ffffffffffffffffffffffffffffffffffffffff1673ffffffffffffffffffffffffffffffffffffffff16815260200190815260200160002060006101000a81548160ff02191690831515021790555050505600a165627a7a72305820d88d8ea580c82b0b18ef390580824b42f5e0ed3b224fde3d0102921a7960f6b80029",
  "source": "pragma solidity ^0.4.24;\n\nimport \"./Roles.sol\";\n\ncontract SignerRole {\n  using Roles for Roles.Role;\n\n  event SignerAdded(address indexed account);\n  event SignerRemoved(address indexed account);\n\n  Roles.Role private signers;\n\n  constructor() public {\n    //NOTE: _addSigner() must be used manually in the child constructor\n    //signers.add(msg.sender);\n  }\n\n  modifier onlySigner() {\n    require(isSigner(msg.sender));\n    _;\n  }\n\n  function isSigner(address account) public view returns (bool) {\n    return signers.has(account);\n  }\n\n  function addSigner(address account) public onlySigner {\n    _addSigner(account);\n  }\n\n  function _addSigner(address account) internal {\n    signers.add(account);\n    emit SignerAdded(account);\n  }\n\n  function renounceSigner() public {\n    signers.remove(msg.sender);\n  }\n\n  function _removeSigner(address account) internal {\n    signers.remove(account);\n    emit SignerRemoved(account);\n  }\n}\n",
  "sourcePath": "/Users/alex/src/DAILY-contracts/contracts/openzeppelin/SignerRole.sol",
  "compiler": {
    "name": "solc",
    "version": "0.4.24+commit.e67f0147.Emscripten.clang"
  },
  "schemaVersion": "2.0.1",
  "updatedAt": "2018-09-08T20:48:17.837Z"
}