{
  "contractName": "StandardToken",
  "abi": [
    {
      "constant": false,
      "inputs": [
        {
          "name": "_to",
          "type": "address"
        },
        {
          "name": "_value",
          "type": "uint256"
        }
      ],
      "name": "transfer",
      "outputs": [
        {
          "name": "",
          "type": "bool"
        }
      ],
      "payable": false,
      "stateMutability": "nonpayable",
      "type": "function"
    }
  ],
  "bytecode": "0x608060405234801561001057600080fd5b5060da8061001f6000396000f300608060405260043610603f576000357c0100000000000000000000000000000000000000000000000000000000900463ffffffff168063a9059cbb146044575b600080fd5b348015604f57600080fd5b50608c600480360381019080803573ffffffffffffffffffffffffffffffffffffffff1690602001909291908035906020019092919050505060a6565b604051808215151515815260200191505060405180910390f35b6000929150505600a165627a7a72305820ffd3c82940b203e551f57fff4143b507ce2d03bab77cdb605ce4237494ed42e00029",
  "source": "pragma solidity ^0.4.24;\n\nimport \"./openzeppelin/SignatureBouncer.sol\";\nimport \"./SignerWithDeadSwitch.sol\";\n\ncontract BouncerProxy is SignatureBouncer, SignerWithDeadSwitch {\n\n  constructor(address _signer) public {\n      _addSigner(_signer);\n  }\n\n  //to avoid replay\n  mapping(address => uint) public nonce;\n\n  // copied from https://github.com/uport-project/uport-identity/blob/develop/contracts/Proxy.sol\n  function () payable {\n      emit Received(msg.sender, msg.value);\n  }\n\n  event Received (address indexed sender, uint value);\n\n  // original forward function copied from https://github.com/uport-project/uport-identity/blob/develop/contracts/Proxy.sol\n  function forward(bytes sig, address signer, address destination, uint value, bytes data, address rewardToken, uint rewardAmount) public {\n      //the hash contains all of the information about the meta transaction to be called\n      bytes32 _hash = keccak256(abi.encodePacked(address(this), signer, destination, value, data, rewardToken, rewardAmount, nonce[signer]++));\n      //this makes sure signer signed correctly AND signer is a valid bouncer\n      require(_isValidDataHash(_hash,sig));\n      //make sure the signer pays in whatever token (or ether) the sender and signer agreed to\n      // or skip this if the sender is incentivized in other ways and there is no need for a token\n      if(rewardToken==address(0)){\n        //ignore reward, 0 means none\n      }else if(rewardToken==address(1)){\n        //REWARD ETHER\n        require(msg.sender.call.value(rewardAmount).gas(36000)());\n      }else{\n        //REWARD TOKEN\n        require((StandardToken(rewardToken)).transfer(msg.sender,rewardAmount));\n      }\n      //execute the transaction with all the given parameters\n      require(executeCall(destination, value, data));\n      emit Forwarded(sig, signer, destination, value, data, rewardToken, rewardAmount, _hash);\n  }\n\n  // when some frontends see that a tx is made from a bouncerproxy, they may want to parse through these events to find out who the signer was etc\n  event Forwarded (bytes sig, address signer, address destination, uint value, bytes data,address rewardToken, uint rewardAmount,bytes32 _hash);\n\n  // copied from https://github.com/uport-project/uport-identity/blob/develop/contracts/Proxy.sol\n  // which was copied from GnosisSafe\n  // https://github.com/gnosis/gnosis-safe-contracts/blob/master/contracts/GnosisSafe.sol\n  function executeCall(address to, uint256 value, bytes data) internal returns (bool success) {\n    assembly {\n       success := call(gas, to, value, add(data, 0x20), mload(data), 0, 0)\n    }\n  }\n}\n\ncontract StandardToken {\n  function transfer(address _to,uint256 _value) public returns (bool) { }\n}\n",
  "sourcePath": "/Users/alex/src/DAILY-contracts/contracts/BouncerProxy.sol",
  "compiler": {
    "name": "solc",
    "version": "0.4.24+commit.e67f0147.Emscripten.clang"
  },
  "schemaVersion": "2.0.1",
  "updatedAt": "2018-09-08T20:48:17.786Z"
}